{
  "_format": "hh-sol-artifact-1",
  "contractName": "Voting",
  "sourceName": "contracts/Voting.sol",
  "abi": [
    {
      "inputs": [
        {
          "internalType": "string[]",
          "name": "candidateNames",
          "type": "string[]"
        }
      ],
      "stateMutability": "nonpayable",
      "type": "constructor"
    },
    {
      "inputs": [
        {
          "internalType": "uint256",
          "name": "",
          "type": "uint256"
        }
      ],
      "name": "candidates",
      "outputs": [
        {
          "internalType": "string",
          "name": "name",
          "type": "string"
        },
        {
          "internalType": "uint256",
          "name": "voteCount",
          "type": "uint256"
        }
      ],
      "stateMutability": "view",
      "type": "function"
    },
    {
      "inputs": [],
      "name": "endVoting",
      "outputs": [],
      "stateMutability": "nonpayable",
      "type": "function"
    },
    {
      "inputs": [],
      "name": "getCandidates",
      "outputs": [
        {
          "components": [
            {
              "internalType": "string",
              "name": "name",
              "type": "string"
            },
            {
              "internalType": "uint256",
              "name": "voteCount",
              "type": "uint256"
            }
          ],
          "internalType": "struct Voting.Candidate[]",
          "name": "",
          "type": "tuple[]"
        }
      ],
      "stateMutability": "view",
      "type": "function"
    },
    {
      "inputs": [
        {
          "internalType": "address",
          "name": "",
          "type": "address"
        }
      ],
      "name": "hasVoted",
      "outputs": [
        {
          "internalType": "bool",
          "name": "",
          "type": "bool"
        }
      ],
      "stateMutability": "view",
      "type": "function"
    },
    {
      "inputs": [],
      "name": "owner",
      "outputs": [
        {
          "internalType": "address",
          "name": "",
          "type": "address"
        }
      ],
      "stateMutability": "view",
      "type": "function"
    },
    {
      "inputs": [
        {
          "internalType": "uint256",
          "name": "candidateIndex",
          "type": "uint256"
        }
      ],
      "name": "vote",
      "outputs": [],
      "stateMutability": "nonpayable",
      "type": "function"
    },
    {
      "inputs": [],
      "name": "votingActive",
      "outputs": [
        {
          "internalType": "bool",
          "name": "",
          "type": "bool"
        }
      ],
      "stateMutability": "view",
      "type": "function"
    }
  ],
  "bytecode": "0x608060405234801561001057600080fd5b5060405161135a38038061135a83398181016040528101906100329190610385565b336000806101000a81548173ffffffffffffffffffffffffffffffffffffffff021916908373ffffffffffffffffffffffffffffffffffffffff16021790555060005b8151811015610108576002604051806040016040528084848151811061009e5761009d6103ce565b5b602002602001015181526020016000815250908060018154018082558091505060019003906000526020600020906002020160009091909190915060008201518160000190816100ee919061061e565b506020820151816001015550508080600101915050610075565b506001600060146101000a81548160ff021916908315150217905550506106f0565b6000604051905090565b600080fd5b600080fd5b600080fd5b6000601f19601f8301169050919050565b7f4e487b7100000000000000000000000000000000000000000000000000000000600052604160045260246000fd5b61018c82610143565b810181811067ffffffffffffffff821117156101ab576101aa610154565b5b80604052505050565b60006101be61012a565b90506101ca8282610183565b919050565b600067ffffffffffffffff8211156101ea576101e9610154565b5b602082029050602081019050919050565b600080fd5b600080fd5b600067ffffffffffffffff8211156102205761021f610154565b5b61022982610143565b9050602081019050919050565b60005b83811015610254578082015181840152602081019050610239565b60008484015250505050565b600061027361026e84610205565b6101b4565b90508281526020810184848401111561028f5761028e610200565b5b61029a848285610236565b509392505050565b600082601f8301126102b7576102b661013e565b5b81516102c7848260208601610260565b91505092915050565b60006102e36102de846101cf565b6101b4565b90508083825260208201905060208402830185811115610306576103056101fb565b5b835b8181101561034d57805167ffffffffffffffff81111561032b5761032a61013e565b5b80860161033889826102a2565b85526020850194505050602081019050610308565b5050509392505050565b600082601f83011261036c5761036b61013e565b5b815161037c8482602086016102d0565b91505092915050565b60006020828403121561039b5761039a610134565b5b600082015167ffffffffffffffff8111156103b9576103b8610139565b5b6103c584828501610357565b91505092915050565b7f4e487b7100000000000000000000000000000000000000000000000000000000600052603260045260246000fd5b600081519050919050565b7f4e487b7100000000000000000000000000000000000000000000000000000000600052602260045260246000fd5b6000600282049050600182168061044f57607f821691505b60208210810361046257610461610408565b5b50919050565b60008190508160005260206000209050919050565b60006020601f8301049050919050565b600082821b905092915050565b6000600883026104ca7fffffffffffffffffffffffffffffffffffffffffffffffffffffffffffffffff8261048d565b6104d4868361048d565b95508019841693508086168417925050509392505050565b6000819050919050565b6000819050919050565b600061051b610516610511846104ec565b6104f6565b6104ec565b9050919050565b6000819050919050565b61053583610500565b61054961054182610522565b84845461049a565b825550505050565b600090565b61055e610551565b61056981848461052c565b505050565b5b8181101561058d57610582600082610556565b60018101905061056f565b5050565b601f8211156105d2576105a381610468565b6105ac8461047d565b810160208510156105bb578190505b6105cf6105c78561047d565b83018261056e565b50505b505050565b600082821c905092915050565b60006105f5600019846008026105d7565b1980831691505092915050565b600061060e83836105e4565b9150826002028217905092915050565b610627826103fd565b67ffffffffffffffff8111156106405761063f610154565b5b61064a8254610437565b610655828285610591565b600060209050601f8311600181146106885760008415610676578287015190505b6106808582610602565b8655506106e8565b601f19841661069686610468565b60005b828110156106be57848901518255600182019150602085019450602081019050610699565b868310156106db57848901516106d7601f8916826105e4565b8355505b6001600288020188555050505b505050505050565b610c5b806106ff6000396000f3fe608060405234801561001057600080fd5b506004361061007d5760003560e01c80633477ee2e1161005b5780633477ee2e146100ec578063408e27271461011d5780638da5cb5b1461013b578063c3403ddf146101595761007d565b80630121b93f1461008257806306a49fce1461009e57806309eef43e146100bc575b600080fd5b61009c6004803603810190610097919061060e565b610163565b005b6100a661031b565b6040516100b391906107d9565b60405180910390f35b6100d660048036038101906100d19190610859565b610416565b6040516100e391906108a1565b60405180910390f35b6101066004803603810190610101919061060e565b610436565b604051610114929190610915565b60405180910390f35b6101256104f2565b60405161013291906108a1565b60405180910390f35b610143610505565b6040516101509190610954565b60405180910390f35b610161610529565b005b600060149054906101000a900460ff166101b2576040517f08c379a00000000000000000000000000000000000000000000000000000000081526004016101a9906109bb565b60405180910390fd5b600160003373ffffffffffffffffffffffffffffffffffffffff1673ffffffffffffffffffffffffffffffffffffffff16815260200190815260200160002060009054906101000a900460ff161561023f576040517f08c379a000000000000000000000000000000000000000000000000000000000815260040161023690610a27565b60405180910390fd5b6002805490508110610286576040517f08c379a000000000000000000000000000000000000000000000000000000000815260040161027d90610a93565b60405180910390fd5b6002818154811061029a57610299610ab3565b5b906000526020600020906002020160010160008154809291906102bc90610b11565b919050555060018060003373ffffffffffffffffffffffffffffffffffffffff1673ffffffffffffffffffffffffffffffffffffffff16815260200190815260200160002060006101000a81548160ff02191690831515021790555050565b60606002805480602002602001604051908101604052809291908181526020016000905b8282101561040d578382906000526020600020906002020160405180604001604052908160008201805461037290610b88565b80601f016020809104026020016040519081016040528092919081815260200182805461039e90610b88565b80156103eb5780601f106103c0576101008083540402835291602001916103eb565b820191906000526020600020905b8154815290600101906020018083116103ce57829003601f168201915b505050505081526020016001820154815250508152602001906001019061033f565b50505050905090565b60016020528060005260406000206000915054906101000a900460ff1681565b6002818154811061044657600080fd5b906000526020600020906002020160009150905080600001805461046990610b88565b80601f016020809104026020016040519081016040528092919081815260200182805461049590610b88565b80156104e25780601f106104b7576101008083540402835291602001916104e2565b820191906000526020600020905b8154815290600101906020018083116104c557829003601f168201915b5050505050908060010154905082565b600060149054906101000a900460ff1681565b60008054906101000a900473ffffffffffffffffffffffffffffffffffffffff1681565b60008054906101000a900473ffffffffffffffffffffffffffffffffffffffff1673ffffffffffffffffffffffffffffffffffffffff163373ffffffffffffffffffffffffffffffffffffffff16146105b7576040517f08c379a00000000000000000000000000000000000000000000000000000000081526004016105ae90610c05565b60405180910390fd5b60008060146101000a81548160ff021916908315150217905550565b600080fd5b6000819050919050565b6105eb816105d8565b81146105f657600080fd5b50565b600081359050610608816105e2565b92915050565b600060208284031215610624576106236105d3565b5b6000610632848285016105f9565b91505092915050565b600081519050919050565b600082825260208201905092915050565b6000819050602082019050919050565b600081519050919050565b600082825260208201905092915050565b60005b838110156106a1578082015181840152602081019050610686565b60008484015250505050565b6000601f19601f8301169050919050565b60006106c982610667565b6106d38185610672565b93506106e3818560208601610683565b6106ec816106ad565b840191505092915050565b610700816105d8565b82525050565b6000604083016000830151848203600086015261072382826106be565b915050602083015161073860208601826106f7565b508091505092915050565b600061074f8383610706565b905092915050565b6000602082019050919050565b600061076f8261063b565b6107798185610646565b93508360208202850161078b85610657565b8060005b858110156107c757848403895281516107a88582610743565b94506107b383610757565b925060208a0199505060018101905061078f565b50829750879550505050505092915050565b600060208201905081810360008301526107f38184610764565b905092915050565b600073ffffffffffffffffffffffffffffffffffffffff82169050919050565b6000610826826107fb565b9050919050565b6108368161081b565b811461084157600080fd5b50565b6000813590506108538161082d565b92915050565b60006020828403121561086f5761086e6105d3565b5b600061087d84828501610844565b91505092915050565b60008115159050919050565b61089b81610886565b82525050565b60006020820190506108b66000830184610892565b92915050565b600082825260208201905092915050565b60006108d882610667565b6108e281856108bc565b93506108f2818560208601610683565b6108fb816106ad565b840191505092915050565b61090f816105d8565b82525050565b6000604082019050818103600083015261092f81856108cd565b905061093e6020830184610906565b9392505050565b61094e8161081b565b82525050565b60006020820190506109696000830184610945565b92915050565b7f566f74696e672068617320656e64656400000000000000000000000000000000600082015250565b60006109a56010836108bc565b91506109b08261096f565b602082019050919050565b600060208201905081810360008301526109d481610998565b9050919050565b7f596f7520616c726561647920766f746564000000000000000000000000000000600082015250565b6000610a116011836108bc565b9150610a1c826109db565b602082019050919050565b60006020820190508181036000830152610a4081610a04565b9050919050565b7f496e76616c69642063616e646964617465000000000000000000000000000000600082015250565b6000610a7d6011836108bc565b9150610a8882610a47565b602082019050919050565b60006020820190508181036000830152610aac81610a70565b9050919050565b7f4e487b7100000000000000000000000000000000000000000000000000000000600052603260045260246000fd5b7f4e487b7100000000000000000000000000000000000000000000000000000000600052601160045260246000fd5b6000610b1c826105d8565b91507fffffffffffffffffffffffffffffffffffffffffffffffffffffffffffffffff8203610b4e57610b4d610ae2565b5b600182019050919050565b7f4e487b7100000000000000000000000000000000000000000000000000000000600052602260045260246000fd5b60006002820490506001821680610ba057607f821691505b602082108103610bb357610bb2610b59565b5b50919050565b7f4f6e6c79206f776e65722063616e20656e6420766f74696e6700000000000000600082015250565b6000610bef6019836108bc565b9150610bfa82610bb9565b602082019050919050565b60006020820190508181036000830152610c1e81610be2565b905091905056fea26469706673582212209425dac97fc4d4d7d08e50a93c62ebc917c3f452b0081ab8bd41e633523dd40a64736f6c634300081c0033",
  "linkReferences": {},
  "deployedLinkReferences": {}
}